{
  "transactions": [
    {
      "hash": "0x643b6afeb8250eb7869a38837ff59dcae10695a1d688e0a1dc34fe7be3949dcc",
      "transactionType": "CALL",
      "contractName": null,
      "contractAddress": "0x875d3fbf298cf2e7537bbbb3213ab990c35655e8",
      "function": "allowPaymentsForToken(address)",
      "arguments": [
        "0x1c7D4B196Cb0C7B01d743Fbc6116a902379C7238"
      ],
      "transaction": {
        "from": "0x9f697b991be51b7a2f46190ebd7b40061b729224",
        "to": "0x875d3fbf298cf2e7537bbbb3213ab990c35655e8",
        "gas": "0x13216",
        "value": "0x0",
        "input": "0xb27e1b0f0000000000000000000000001c7d4b196cb0c7b01d743fbc6116a902379c7238",
        "nonce": "0xd",
        "chainId": "0xaa36a7"
      },
      "additionalContracts": [],
      "isFixedGasLimit": false
    }
  ],
  "receipts": [
    {
      "status": "0x1",
      "cumulativeGasUsed": "0x17aab27",
      "logs": [
        {
          "address": "0x875d3fbf298cf2e7537bbbb3213ab990c35655e8",
          "topics": [
            "0xc68cbb36ac14a895c9c23de23a47342d26ec2a19e4d7b1e94ade32693cedcde7"
          ],
          "data": "0x0000000000000000000000001c7d4b196cb0c7b01d743fbc6116a902379c7238",
          "blockHash": "0x4b542ec8ef307015c518f6a6e938f719912ea3f986df26cb8919013edfe1dc90",
          "blockNumber": "0xa59664",
          "blockTimestamp": "0x6a05ec28",
          "transactionHash": "0x643b6afeb8250eb7869a38837ff59dcae10695a1d688e0a1dc34fe7be3949dcc",
          "transactionIndex": "0xc0",
          "logIndex": "0x26b",
          "removed": false
        }
      ],
      "logsBloom": "0x00000000000000000000000000000000000000000000000000000000000000000000000000000000000000000000000000000000000000000000000000000000000000000000000000000000000000000000000080000000100000000000000000000000000000000000000000000000000000000000000000000000000000000000000000000000000000000000000000004000000000000000000000400000000000000000000000000000000000000000000000400000000000000000000000000000000000000000000000000000000000000000000000000000000000000000000000100000000000000000000000000000000000000000000000000000",
      "type": "0x2",
      "transactionHash": "0x643b6afeb8250eb7869a38837ff59dcae10695a1d688e0a1dc34fe7be3949dcc",
      "transactionIndex": "0xc0",
      "blockHash": "0x4b542ec8ef307015c518f6a6e938f719912ea3f986df26cb8919013edfe1dc90",
      "blockNumber": "0xa59664",
      "gasUsed": "0xd14b",
      "effectiveGasPrice": "0xf4256",
      "from": "0x9f697b991be51b7a2f46190ebd7b40061b729224",
      "to": "0x875d3fbf298cf2e7537bbbb3213ab990c35655e8",
      "contractAddress": null
    }
  ],
  "libraries": [],
  "pending": [],
  "returns": {},
  "timestamp": 1778773033153,
  "chain": 11155111,
  "commit": "d982792"
}