{
  "transactions": [
    {
      "hash": "0x9fcd562ce1a6116daa80a93bf90062497984c99583765e06b7b9f657e00ed751",
      "transactionType": "CALL",
      "contractName": null,
      "contractAddress": "0x875d3fbf298cf2e7537bbbb3213ab990c35655e8",
      "function": "allowPaymentsForToken(address)",
      "arguments": [
        "0x875D3FBf298CF2E7537BbBb3213aB990C35655e8"
      ],
      "transaction": {
        "from": "0x9f697b991be51b7a2f46190ebd7b40061b729224",
        "to": "0x875d3fbf298cf2e7537bbbb3213ab990c35655e8",
        "gas": "0x13216",
        "value": "0x0",
        "input": "0xb27e1b0f000000000000000000000000875d3fbf298cf2e7537bbbb3213ab990c35655e8",
        "nonce": "0xc",
        "chainId": "0xaa36a7"
      },
      "additionalContracts": [],
      "isFixedGasLimit": false
    }
  ],
  "receipts": [
    {
      "status": "0x1",
      "cumulativeGasUsed": "0x103a03c",
      "logs": [
        {
          "address": "0x875d3fbf298cf2e7537bbbb3213ab990c35655e8",
          "topics": [
            "0xc68cbb36ac14a895c9c23de23a47342d26ec2a19e4d7b1e94ade32693cedcde7"
          ],
          "data": "0x000000000000000000000000875d3fbf298cf2e7537bbbb3213ab990c35655e8",
          "blockHash": "0x5b29169ff9ec5d257d9ef47674d4d0adaf556f0147404646e27253f63c56dbd7",
          "blockNumber": "0xa59660",
          "blockTimestamp": "0x6a05ebec",
          "transactionHash": "0x9fcd562ce1a6116daa80a93bf90062497984c99583765e06b7b9f657e00ed751",
          "transactionIndex": "0x6a",
          "logIndex": "0x142",
          "removed": false
        }
      ],
      "logsBloom": "0x00000000000000000000000000000000000000000000000000000000000000000000000000000000000000000000000000000000000000000000000000000000000000000000000000000000000000000000000080000000100000000000000000000000000000000000000000000000000000000000000000000000000000000000000000000000000000000000000000004000000000000000000000400000000000000000000000000000000000000000000000400000000000000000000000000000000000000000000000000000000000000000000000000000000000000000000000100000000000000000000000000000000000000000000000000000",
      "type": "0x2",
      "transactionHash": "0x9fcd562ce1a6116daa80a93bf90062497984c99583765e06b7b9f657e00ed751",
      "transactionIndex": "0x6a",
      "blockHash": "0x5b29169ff9ec5d257d9ef47674d4d0adaf556f0147404646e27253f63c56dbd7",
      "blockNumber": "0xa59660",
      "gasUsed": "0xd14b",
      "effectiveGasPrice": "0xf4257",
      "from": "0x9f697b991be51b7a2f46190ebd7b40061b729224",
      "to": "0x875d3fbf298cf2e7537bbbb3213ab990c35655e8",
      "contractAddress": null
    }
  ],
  "libraries": [],
  "pending": [],
  "returns": {},
  "timestamp": 1778772973681,
  "chain": 11155111,
  "commit": "d982792"
}