{
  "transactions": [
    {
      "hash": "0xbbaa039facbdad60b7932c90112232af8fc757e5818b86b7f037b04748b2c3f4",
      "transactionType": "CALL",
      "contractName": null,
      "contractAddress": "0x875d3fbf298cf2e7537bbbb3213ab990c35655e8",
      "function": "grantAdminRole(address)",
      "arguments": [
        "0xFD0C20AA0A43D2BCCfE020aA479E8de4C0b5b3Ac"
      ],
      "transaction": {
        "from": "0x9f697b991be51b7a2f46190ebd7b40061b729224",
        "to": "0x875d3fbf298cf2e7537bbbb3213ab990c35655e8",
        "gas": "0x127be",
        "value": "0x0",
        "input": "0xc634b78e000000000000000000000000fd0c20aa0a43d2bccfe020aa479e8de4c0b5b3ac",
        "nonce": "0xe",
        "chainId": "0xaa36a7"
      },
      "additionalContracts": [],
      "isFixedGasLimit": false
    }
  ],
  "receipts": [
    {
      "status": "0x1",
      "cumulativeGasUsed": "0x13b2949",
      "logs": [
        {
          "address": "0x875d3fbf298cf2e7537bbbb3213ab990c35655e8",
          "topics": [
            "0x2f8788117e7eff1d82e926ec794901d17c78024a50270940304540a733656f0d",
            "0xa49807205ce4d355092ef5a8a18f56e8913cf4a201fbe287825b095693c21775",
            "0x000000000000000000000000fd0c20aa0a43d2bccfe020aa479e8de4c0b5b3ac",
            "0x0000000000000000000000009f697b991be51b7a2f46190ebd7b40061b729224"
          ],
          "data": "0x",
          "blockHash": "0xeb34c74d1e7c2b34821dec508822c49b5364d182c408fceabd83916910e1d075",
          "blockNumber": "0xa59674",
          "blockTimestamp": "0x6a05ed18",
          "transactionHash": "0xbbaa039facbdad60b7932c90112232af8fc757e5818b86b7f037b04748b2c3f4",
          "transactionIndex": "0xb2",
          "logIndex": "0x18b",
          "removed": false
        }
      ],
      "logsBloom": "0x000000040000000000000000000000000000000000000000000000000000000000000000000000000000000400000000000000000000000000000000000000000002000000000000000000000000000000000000a0000000000000000000000000000000000010000000000000000000000000080000000800000000000000000000000000000000000000000000004004004000000000000000000000400000000000000000000000000000000000000000000000000000001000000000000000000000000001000000000000000000000000000000000100000000000000000000000000000000000000000000000000000000000000000000000000000000",
      "type": "0x2",
      "transactionHash": "0xbbaa039facbdad60b7932c90112232af8fc757e5818b86b7f037b04748b2c3f4",
      "transactionIndex": "0xb2",
      "blockHash": "0xeb34c74d1e7c2b34821dec508822c49b5364d182c408fceabd83916910e1d075",
      "blockNumber": "0xa59674",
      "gasUsed": "0xd61e",
      "effectiveGasPrice": "0xf4252",
      "from": "0x9f697b991be51b7a2f46190ebd7b40061b729224",
      "to": "0x875d3fbf298cf2e7537bbbb3213ab990c35655e8",
      "contractAddress": null
    }
  ],
  "libraries": [],
  "pending": [],
  "returns": {},
  "timestamp": 1778773273805,
  "chain": 11155111,
  "commit": "d982792"
}