{
  "transactions": [
    {
      "hash": "0x970ea7dde493eae1c9e07a3130a8278d7fa43745613ac7343ae4e026539110f1",
      "transactionType": "CALL",
      "contractName": null,
      "contractAddress": "0x92e67bfe49466b18ccdf2a3a28b234ab68374c60",
      "function": "updateMaxWithdrawalFees(address,uint256)",
      "arguments": [
        "0x92e67Bfe49466b18ccDF2A3A28B234AB68374c60",
        "100000000000000000"
      ],
      "transaction": {
        "from": "0x9f697b991be51b7a2f46190ebd7b40061b729224",
        "to": "0x92e67bfe49466b18ccdf2a3a28b234ab68374c60",
        "gas": "0x140e4",
        "value": "0x0",
        "input": "0xbf80b66400000000000000000000000092e67bfe49466b18ccdf2a3a28b234ab68374c60000000000000000000000000000000000000000000000000016345785d8a0000",
        "nonce": "0xa",
        "chainId": "0x18c6"
      },
      "additionalContracts": [],
      "isFixedGasLimit": false
    }
  ],
  "receipts": [
    {
      "status": "0x1",
      "cumulativeGasUsed": "0x19e1c16",
      "logs": [
        {
          "address": "0x92e67bfe49466b18ccdf2a3a28b234ab68374c60",
          "topics": [
            "0xfb6972ac36d853399d29cf34740dbb43329c3eaabbcaaf1040df068fe87bc51f"
          ],
          "data": "0x00000000000000000000000092e67bfe49466b18ccdf2a3a28b234ab68374c60000000000000000000000000000000000000000000000000016345785d8a0000",
          "blockHash": "0x0000000000000000000000000000000000000000000000000000000000000000",
          "blockNumber": "0x3872e8",
          "blockTimestamp": "0x6800c37a",
          "transactionHash": "0x970ea7dde493eae1c9e07a3130a8278d7fa43745613ac7343ae4e026539110f1",
          "transactionIndex": "0x19c",
          "logIndex": "0x252",
          "removed": false
        }
      ],
      "logsBloom": "0x00000000000000000000000000000000000000000000002000000000000008000000000000000000000000000000000000000000000000000000000000000000000000000000000000000000000000000000000000000000000000000000000000000000000000000000000000000000000000000000000000000000000000000000000000000100000000000000000000000000000000001000000000000000000000000000000000000000000000000000000000000000000010000000000000000000000000000000000000000000000000000000000000000000000000000080000000000000000000000000000000000000000000000000000000000000",
      "type": "0x2",
      "transactionHash": "0x970ea7dde493eae1c9e07a3130a8278d7fa43745613ac7343ae4e026539110f1",
      "transactionIndex": "0x19c",
      "blockHash": "0x0000000000000000000000000000000000000000000000000000000000000000",
      "blockNumber": "0x3872e8",
      "gasUsed": "0xdb6a",
      "effectiveGasPrice": "0xf4241",
      "from": "0x9f697b991be51b7a2f46190ebd7b40061b729224",
      "to": "0x92e67bfe49466b18ccdf2a3a28b234ab68374c60",
      "contractAddress": null
    }
  ],
  "libraries": [],
  "pending": [],
  "returns": {},
  "timestamp": 1744880506,
  "chain": 6342,
  "commit": "9b5d4c6"
}