{
  "transactions": [
    {
      "hash": "0xc511dff67171ed3c60c06548ac95757ba67e8ce2150fb78ffcd34cfd1ea30bfc",
      "transactionType": "CALL",
      "contractName": null,
      "contractAddress": "0x92e67bfe49466b18ccdf2a3a28b234ab68374c60",
      "function": "updateMaxWithdrawalFees(address,uint256)",
      "arguments": [
        "0x92e67Bfe49466b18ccDF2A3A28B234AB68374c60",
        "100000000000000000"
      ],
      "transaction": {
        "from": "0x9f697b991be51b7a2f46190ebd7b40061b729224",
        "to": "0x92e67bfe49466b18ccdf2a3a28b234ab68374c60",
        "gas": "0x140e4",
        "value": "0x0",
        "input": "0xbf80b66400000000000000000000000092e67bfe49466b18ccdf2a3a28b234ab68374c60000000000000000000000000000000000000000000000000016345785d8a0000",
        "nonce": "0xa",
        "chainId": "0x1cbc67c35a"
      },
      "additionalContracts": [],
      "isFixedGasLimit": false
    }
  ],
  "receipts": [
    {
      "status": "0x1",
      "cumulativeGasUsed": "0x3d859",
      "logs": [
        {
          "address": "0x92e67bfe49466b18ccdf2a3a28b234ab68374c60",
          "topics": [
            "0xfb6972ac36d853399d29cf34740dbb43329c3eaabbcaaf1040df068fe87bc51f"
          ],
          "data": "0x00000000000000000000000092e67bfe49466b18ccdf2a3a28b234ab68374c60000000000000000000000000000000000000000000000000016345785d8a0000",
          "blockHash": "0x9a388d4b5466f624ee1114a3b0f78cf9e77829f07134c514701df6744dbd4f07",
          "blockNumber": "0xa4c8c6",
          "blockTimestamp": "0x6848bc46",
          "transactionHash": "0xc511dff67171ed3c60c06548ac95757ba67e8ce2150fb78ffcd34cfd1ea30bfc",
          "transactionIndex": "0x1",
          "logIndex": "0x2",
          "removed": false
        }
      ],
      "logsBloom": "0x00000000000000000000000000000000000000000000002000000000000008000000000000000000000000000000000000000000000000000000000000000000000000000000000000000000000000000000000000000000000000000000000000000000000000000000000000000000000000000000000000000000000000000000000000000100000000000000000000000000000000001000000000000000000000000000000000000000000000000000000000000000000010000000000000000000000000000000000000000000000000000000000000000000000000000080000000000000000000000000000000000000000000000000000000000000",
      "type": "0x2",
      "transactionHash": "0xc511dff67171ed3c60c06548ac95757ba67e8ce2150fb78ffcd34cfd1ea30bfc",
      "transactionIndex": "0x1",
      "blockHash": "0x9a388d4b5466f624ee1114a3b0f78cf9e77829f07134c514701df6744dbd4f07",
      "blockNumber": "0xa4c8c6",
      "gasUsed": "0xdb6a",
      "effectiveGasPrice": "0x3e95ba87",
      "from": "0x9f697b991be51b7a2f46190ebd7b40061b729224",
      "to": "0x92e67bfe49466b18ccdf2a3a28b234ab68374c60",
      "contractAddress": null
    }
  ],
  "libraries": [],
  "pending": [],
  "returns": {},
  "timestamp": 1749597256,
  "chain": 123420001114,
  "commit": "f209c12"
}