{
  "transactions": [
    {
      "hash": "0x5c17553ad86eddd042f28b728bdd55bf4fa2afa61c9d82873e7fce34340265f3",
      "transactionType": "CALL",
      "contractName": null,
      "contractAddress": "0xc38d1681d34da821e46508c084d673477e455570",
      "function": "allowPaymentsForToken(address)",
      "arguments": [
        "0x3600000000000000000000000000000000000000"
      ],
      "transaction": {
        "from": "0x9f697b991be51b7a2f46190ebd7b40061b729224",
        "to": "0xc38d1681d34da821e46508c084d673477e455570",
        "gas": "0x11fda",
        "value": "0x0",
        "input": "0xb27e1b0f0000000000000000000000003600000000000000000000000000000000000000",
        "nonce": "0x18",
        "chainId": "0x4cef52"
      },
      "additionalContracts": [],
      "isFixedGasLimit": false
    }
  ],
  "receipts": [
    {
      "status": "0x1",
      "cumulativeGasUsed": "0x12e66d",
      "logs": [
        {
          "address": "0xc38d1681d34da821e46508c084d673477e455570",
          "topics": [
            "0xc68cbb36ac14a895c9c23de23a47342d26ec2a19e4d7b1e94ade32693cedcde7"
          ],
          "data": "0x0000000000000000000000003600000000000000000000000000000000000000",
          "blockHash": "0x913bc0fc6477b69968ebe8730af281caf854b29152d5067c37fe709fd825c999",
          "blockNumber": "0x283c189",
          "blockTimestamp": "0x6a05f0ae",
          "transactionHash": "0x5c17553ad86eddd042f28b728bdd55bf4fa2afa61c9d82873e7fce34340265f3",
          "transactionIndex": "0xa",
          "logIndex": "0x26",
          "removed": false
        }
      ],
      "logsBloom": "0x00004000000000000000000000000000000000000080000000000000000000000000000000000000000000000000000000000000000000000000000000000000000000000000000000000000000000000000000000000000100000000000000000000000000000000000000000000000000000000000000000000000000000000000000000000000000000000000000000000000000000000000000000000000000000000000000100000000000000000000000000400000000000000000000000000000000000000000000000000000000000000000000000000000000000000000000000100000000000000000000000000000000000000000000000000000",
      "type": "0x2",
      "transactionHash": "0x5c17553ad86eddd042f28b728bdd55bf4fa2afa61c9d82873e7fce34340265f3",
      "transactionIndex": "0xa",
      "blockHash": "0x913bc0fc6477b69968ebe8730af281caf854b29152d5067c37fe709fd825c999",
      "blockNumber": "0x283c189",
      "gasUsed": "0xd067",
      "effectiveGasPrice": "0x4a82890e0",
      "from": "0x9f697b991be51b7a2f46190ebd7b40061b729224",
      "to": "0xc38d1681d34da821e46508c084d673477e455570",
      "contractAddress": null
    }
  ],
  "libraries": [],
  "pending": [],
  "returns": {},
  "timestamp": 1778774191852,
  "chain": 5042002,
  "commit": "6c2cede"
}