{
  "transactions": [
    {
      "hash": "0x45d36e0535f44e1db7a2a28f50d01f57c3edfd52c3751711d046970777ac49f5",
      "transactionType": "CALL",
      "contractName": null,
      "contractAddress": "0xc38d1681d34da821e46508c084d673477e455570",
      "function": "grantAdminRole(address)",
      "arguments": [
        "0xFD0C20AA0A43D2BCCfE020aA479E8de4C0b5b3Ac"
      ],
      "transaction": {
        "from": "0x9f697b991be51b7a2f46190ebd7b40061b729224",
        "to": "0xc38d1681d34da821e46508c084d673477e455570",
        "gas": "0x127be",
        "value": "0x0",
        "input": "0xc634b78e000000000000000000000000fd0c20aa0a43d2bccfe020aa479e8de4c0b5b3ac",
        "nonce": "0x19",
        "chainId": "0x4cef52"
      },
      "additionalContracts": [],
      "isFixedGasLimit": false
    }
  ],
  "receipts": [
    {
      "status": "0x1",
      "cumulativeGasUsed": "0xd3975",
      "logs": [
        {
          "address": "0xc38d1681d34da821e46508c084d673477e455570",
          "topics": [
            "0x2f8788117e7eff1d82e926ec794901d17c78024a50270940304540a733656f0d",
            "0xa49807205ce4d355092ef5a8a18f56e8913cf4a201fbe287825b095693c21775",
            "0x000000000000000000000000fd0c20aa0a43d2bccfe020aa479e8de4c0b5b3ac",
            "0x0000000000000000000000009f697b991be51b7a2f46190ebd7b40061b729224"
          ],
          "data": "0x",
          "blockHash": "0xe2528abbfa4bfa0b10d04d7774f1e333097b23fa18f991c7b924a3d69c01b7b2",
          "blockNumber": "0x283c1c9",
          "blockTimestamp": "0x6a05f0ce",
          "transactionHash": "0x45d36e0535f44e1db7a2a28f50d01f57c3edfd52c3751711d046970777ac49f5",
          "transactionIndex": "0x8",
          "logIndex": "0x1d",
          "removed": false
        }
      ],
      "logsBloom": "0x00004004000000000000000000000000000000000080000000000000000000000000000000000000000000040000000000000000000000000000000000000000000200000000000000000000000000000000000020000000000000000000000000000000000010000000000000000000000000080000000800000000000000000000000000000000000000000000004004000000000000000000000000000000000000000000000100000000000000000000000000000000001000000000000000000000000001000000000000000000000000000000000100000000000000000000000000000000000000000000000000000000000000000000000000000000",
      "type": "0x2",
      "transactionHash": "0x45d36e0535f44e1db7a2a28f50d01f57c3edfd52c3751711d046970777ac49f5",
      "transactionIndex": "0x8",
      "blockHash": "0xe2528abbfa4bfa0b10d04d7774f1e333097b23fa18f991c7b924a3d69c01b7b2",
      "blockNumber": "0x283c1c9",
      "gasUsed": "0xd61e",
      "effectiveGasPrice": "0x4a8270a40",
      "from": "0x9f697b991be51b7a2f46190ebd7b40061b729224",
      "to": "0xc38d1681d34da821e46508c084d673477e455570",
      "contractAddress": null
    }
  ],
  "libraries": [],
  "pending": [],
  "returns": {},
  "timestamp": 1778774224293,
  "chain": 5042002,
  "commit": "6c2cede"
}