{
  "transactions": [
    {
      "hash": "0xdad41d791c2befea25d0099202cfb543423151e2ae407cf3b4e1faba2a58eadd",
      "transactionType": "CALL",
      "contractName": null,
      "contractAddress": "0xc38d1681d34da821e46508c084d673477e455570",
      "function": "setupCctpOnly(address,uint32,bytes32)",
      "arguments": [
        "0xE737e5cEBEEBa77EFE34D4aa090756590b1CE275",
        "26",
        "0xfcfa255b5b1c8e2b9672ea5d7a51e54c78ecbf0f0e87607e8b86ec2cfd25d4fd"
      ],
      "transaction": {
        "from": "0x9f697b991be51b7a2f46190ebd7b40061b729224",
        "to": "0xc38d1681d34da821e46508c084d673477e455570",
        "gas": "0x1cc3d",
        "value": "0x0",
        "input": "0x7fda1725000000000000000000000000e737e5cebeeba77efe34d4aa090756590b1ce275000000000000000000000000000000000000000000000000000000000000001afcfa255b5b1c8e2b9672ea5d7a51e54c78ecbf0f0e87607e8b86ec2cfd25d4fd",
        "nonce": "0x17",
        "chainId": "0x4cef52"
      },
      "additionalContracts": [],
      "isFixedGasLimit": false
    }
  ],
  "receipts": [
    {
      "status": "0x1",
      "cumulativeGasUsed": "0x10f894",
      "logs": [
        {
          "address": "0xc38d1681d34da821e46508c084d673477e455570",
          "topics": [
            "0x094f6bc34f7a60b25ac565f3824d0d9650ec234f63c62112ba43257a649629e2"
          ],
          "data": "0x",
          "blockHash": "0x29689d5484c149861757a78c5e4423abaac654f2f9c54292c7553b4dba2bc6ba",
          "blockNumber": "0x283c144",
          "blockTimestamp": "0x6a05f08a",
          "transactionHash": "0xdad41d791c2befea25d0099202cfb543423151e2ae407cf3b4e1faba2a58eadd",
          "transactionIndex": "0xe",
          "logIndex": "0x2b",
          "removed": false
        }
      ],
      "logsBloom": "0x00004000000000000000000000000000000000000080000000000000000000000000000000000000000000000000000000000000000000000000000000000000000000000800000000000000000000000000000000000000000000000000000000000000000000000000000000000000000000000000000000010000000000000000000000000000000000000000000000000000000000000000000000000000000000000000000100000000000000000000000000000000000000000000000000000000000000000000000000000000000000000000000000000000000000000000000000000000000000000000200000000000000000000000000000000000",
      "type": "0x2",
      "transactionHash": "0xdad41d791c2befea25d0099202cfb543423151e2ae407cf3b4e1faba2a58eadd",
      "transactionIndex": "0xe",
      "blockHash": "0x29689d5484c149861757a78c5e4423abaac654f2f9c54292c7553b4dba2bc6ba",
      "blockNumber": "0x283c144",
      "gasUsed": "0x13ab2",
      "effectiveGasPrice": "0x4a8270a40",
      "from": "0x9f697b991be51b7a2f46190ebd7b40061b729224",
      "to": "0xc38d1681d34da821e46508c084d673477e455570",
      "contractAddress": null
    }
  ],
  "libraries": [],
  "pending": [],
  "returns": {},
  "timestamp": 1778774156604,
  "chain": 5042002,
  "commit": "6c2cede"
}