{
  "transactions": [
    {
      "hash": "0xdc65d26ecdbbaf2d46179d4b75d571fe15d896599f6d69ec2f92988e9242f0c3",
      "transactionType": "CALL",
      "contractName": null,
      "contractAddress": "0x92e67bfe49466b18ccdf2a3a28b234ab68374c60",
      "function": "allowPaymentsForToken(address)",
      "arguments": [
        "0x92e67Bfe49466b18ccDF2A3A28B234AB68374c60"
      ],
      "transaction": {
        "from": "0x9f697b991be51b7a2f46190ebd7b40061b729224",
        "to": "0x92e67bfe49466b18ccdf2a3a28b234ab68374c60",
        "value": "0x0",
        "input": "0xb27e1b0f00000000000000000000000092e67bfe49466b18ccdf2a3a28b234ab68374c60",
        "nonce": "0x9",
        "chainId": "0x10e6"
      },
      "additionalContracts": [],
      "isFixedGasLimit": false
    }
  ],
  "receipts": [
    {
      "status": "0x1",
      "cumulativeGasUsed": "0x37c0bf",
      "logs": [
        {
          "address": "0x92e67bfe49466b18ccdf2a3a28b234ab68374c60",
          "topics": [
            "0xc68cbb36ac14a895c9c23de23a47342d26ec2a19e4d7b1e94ade32693cedcde7"
          ],
          "data": "0x00000000000000000000000092e67bfe49466b18ccdf2a3a28b234ab68374c60",
          "blockHash": "0x6ebae6e6e0dd9943d01ab97baadb232c707c4b6b74502b277873a4cc5f430c85",
          "blockNumber": "0xed7b34",
          "blockTimestamp": "0x69ffa107",
          "transactionHash": "0xdc65d26ecdbbaf2d46179d4b75d571fe15d896599f6d69ec2f92988e9242f0c3",
          "transactionIndex": "0xb",
          "logIndex": "0x3a",
          "removed": false
        }
      ],
      "logsBloom": "0x00000000000000000000000000000000000000000000000000000000000008000000000000000000000000000000000000000000000000000000000000000000000000000000000000000000000000000000000000000000100000000000000000000000000000000000000000000000000000000000000000000000000000000000000000000000000000000000000000000000000000001000000000000000000000000000000000000000000000000000000000400000000010000000000000000000000000000000000000000000000000000000000000000000000000000000000000100000000000000000000000000000000000000000000000000000",
      "type": "0x2",
      "transactionHash": "0xdc65d26ecdbbaf2d46179d4b75d571fe15d896599f6d69ec2f92988e9242f0c3",
      "transactionIndex": "0xb",
      "blockHash": "0x6ebae6e6e0dd9943d01ab97baadb232c707c4b6b74502b277873a4cc5f430c85",
      "blockNumber": "0xed7b34",
      "gasUsed": "0x19279",
      "effectiveGasPrice": "0xf4241",
      "from": "0x9f697b991be51b7a2f46190ebd7b40061b729224",
      "to": "0x92e67bfe49466b18ccdf2a3a28b234ab68374c60",
      "contractAddress": null,
      "l1BaseFeeScalar": "0x558",
      "l1BlobBaseFee": "0x291d397d779843",
      "l1BlobBaseFeeScalar": "0x0",
      "l1Fee": "0x11cc4768",
      "l1GasPrice": "0x821a21f",
      "l1GasUsed": "0x640"
    }
  ],
  "libraries": [],
  "pending": [],
  "returns": {},
  "timestamp": 1778360584292,
  "chain": 4326,
  "commit": "840dc57"
}